:1000000021C0F9C01DC139C038C037C036C035C0A5
:1000100034C033C032C031C030C06AC02EC02DC021
:100020002CC02BC02AC029C028C027C026C025C08C
:10003000A5C123C06CC16DC16EC16FC170C178C153
:100040007BC183C111241FBECFEFD4E0DEBFCDBF83
:1000500011E0A0E0B1E0EAE4F4E002C005900D9206
:10006000A030B107D9F711E0A0E0B1E001C01D92C6
:10007000AF31B107E1F709D1E6C1C2CF109210014B
:1000800010921101109212011092130110920C01A2
:1000900010920D0110920E0110920F0110920401A6
:1000A00010920501109206011092070110920801AA
:1000B0001092090110920A0110920B018AB1837FFC
:1000C0008AB98BB18C608BB9E9E6F0E080818B60F6
:1000D00080838DB383608DBBE1E8F0E08081856033
:1000E0008083EFE6F0E080818160808378940895DA
:1000F0001F920F920FB60F9211242F933F934F939D
:100100005F938F939F93AF93BF93809110019091D2
:100110001101A0911201B09113010097A105B10541
:1001200071F480910C0190910D01A0910E01B0919C
:100130000F010097A105B10511F487E12DC02091B1
:1001400010013091110140911201509113018091E1
:10015000040190910501A0910601B09107012817B3
:1001600039074A075B0711F484E116C020910C019E
:1001700030910D0140910E0150910F0180910801C5
:1001800090910901A0910A01B0910B01281739073C
:100190004A075B0719F485E18093150180911001EE
:1001A00090911101A0911201B0911301809304016B
:1001B00090930501A0930601B093070180910C0173
:1001C00090910D01A0910E01B0910F018093080153
:1001D00090930901A0930A01B0930B01BF91AF91D5
:1001E0009F918F915F914F913F912F910F900FBEF3
:1001F0000F901F9018951F920F920FB60F92112417
:100200008F939F93AF93BF938091100190911101B1
:10021000A0911201B09113010196A11DB11D80930F
:10022000100190931101A0931201B0931301BF919B
:10023000AF919F918F910F900FBE0F901F901895C7
:100240001F920F920FB60F9211248F939F93AF932B
:10025000BF9380910C0190910D01A0910E01B0917E
:100260000F010196A11DB11D80930C0190930D010A
:10027000A0930E01B0930F01BF91AF919F918F9109
:100280000F900FBE0F901F9018958FEF84B915B87F
:1002900080E164D0F3DE8091100190911101A09172
:1002A0001201B0911301892F9A2FAB2FBB27809396
:1002B00016018091100190911101A0911201B0914D
:1002C00013018093170180910C0190910D01A09171
:1002D0000E01B0910F01892F9A2FAB2FBB2780936E
:1002E000180180910C0190910D01A0910E01B09127
:1002F0000F01809319018091150190E04297883099
:10030000910548F6865E9F4F8F939F930895299A93
:10031000C2CF289AC0CF2998BECF2898BCCF85B12C
:10032000836085B980916F00816080936F00B3CF47
:1003300085B18C7F85B9AFCF109210011092110159
:100340001092120110921301A6CF10920C0110927C
:100350000D0110920E0110920F019DCF880F809316
:10036000BA00ECEBF0E080818F7D80838081856432
:1003700080838FEF80931E01789408951F920F92CF
:100380000FB60F9211248F939F93EF93FF93809159
:10039000B90090E0887F907080389105B1F0813885
:1003A00091052CF48036910509F041C007C0883AC8
:1003B000910509F1883B9105D1F51DC085EC80932D
:1003C000BC008FEF80931E0135C08091BB009091DF
:1003D0001E019F3F29F48B3018F110921E0125C099
:1003E00090911E019B30C8F4E0911E01F0E0EC5E9C
:1003F000FE4F808312C080911E018F3F11F4109236
:100400001E0180911E018B3070F4E0911E01F0E01E
:10041000EC5EFE4F80818093BB0080911E018F5F58
:1004200080931E0102C01092BB0085EC01C085EDD7
:100430008093BC00FF91EF919F918F910F900FBE21
:0A0440000F901F901895F894FFCF5D
:00000001FF
